:100000000C942A000C9447000C9447000C94470071
:100010000C9447000C9447000C9447000C94470044
:100020000C9447000C9447000C9447000C94470034
:100030000C9447000C9447000C9447000C94470024
:100040000C9447000C9447000C9447000C94470014
:100050000C94470011241FBECFE5D8E0DEBFCDBF12
:1000600011E0A0E6B0E0EEEFFDE002C005900D92D9
:10007000A230B107D9F721E0A2E0B1E001C01D92A2
:10008000A031B207E1F70E9449000C94FD060C94E0
:1000900000000E94EA010E946B0260E875E280E0C5
:1000A00090E00E949A0482E00E9409030E944C049E
:1000B0000E945904789460E070E080EA92E40E9423
:1000C00065040E94D800109203010E949C01D0E0B8
:1000D0000E94010260910F01809104010E94F301CE
:1000E00090910301992389F18B3219F51092020145
:1000F000109203010E94B9028AE790E00E94A602D2
:1001000060E081E00E94C00283E00E942D018091A6
:100110000201811107C086E890E00E94DB040E9482
:10012000AB01D6CF82EB90E00E94DB040E949C01E1
:100130000AC08D3241F40E94D80085E091E00E940F
:10014000DB040E949C011092030180E00E94F102F6
:1001500099270E94DC02C82FD81709F4B9CF84323E
:1001600040F060E070E088EC92E40E946504DC2FCF
:10017000AFCF86EE8C0F8A3040F460E070E088E408
:1001800092E40E946504DC2FA3CF8BEE8C0F8530A8
:1001900040F460E070E080E291E40E946504DC2FAE
:1001A00097CF60E070E0CB010E946504DC2F90CF18
:1001B0000F931F93CF938CE890E00E94A60260E01B
:1001C00081E00E94C00210920301C0E02AC00E9498
:1001D0000102809103018823D1F360910F01809186
:1001E00004010E94F301863621F410920301C150EC
:1001F00017C00C2F10E060910F01809104010E9444
:10020000F301F801EB5FFE4F8083109203018AE255
:100210000E948C028FE097E20197F1F700C0000086
:10022000CF5FC530B0F20E9401028091030181309E
:10023000D1F760910F01809104010E94F3018D3389
:1002400091F7109203010E94B90285E091E00E94AB
:10025000DB04CF911F910F910895FF920F931F938D
:10026000CF93DF93D82F5DC00E94010280910301DC
:100270008823D1F360910F01809104010E94F30162
:10028000863621F410920301C15017C00C2F10E0E4
:1002900060910F01809104010E94F301F801EB5F6E
:1002A000FE4F8083109203018AE20E948C028FE04D
:1002B00097E20197F1F700C00000CF5F01C0C0E0F6
:1002C000C530A0F20E940102809103018130D1F774
:1002D00060910F01809104010E94F3018D3391F729
:1002E000109203010E94B90285E091E00E94DB04B4
:1002F0000E94D704813321F481E08093020116C06B
:10030000FF2071F00E94B9028FE28D0F0E948C02D3
:100310008CE990E00E94A60260E081E00E94C002A9
:10032000DF2DFF24FA94FD0ED111C9CFDF91CF91BB
:100330001F910F91FF9008950E94B9028AEA90E000
:100340000E94A60260E081E00E94C00287EB90E07C
:100350000E94A60208950E94B90286EC90E00E94D5
:10036000A60260E081E00E94C00287ED90E00E945A
:10037000A6020E940102809103018130D1F76091B1
:100380000F01809104010E94F3018B32E1F40E947D
:10039000B90285EE90E00E94A60260E081E00E9432
:1003A000C00285EF90E00E94A6021092030102C0F5
:1003B0000E940102809103018823D1F30E94B902B7
:1003C0000E94D80004C08D32A1F6109203010E9451
:1003D0009C0108956FE082E00E94FB0360E082E0F0
:1003E0000E940B04089590E0FC01EE0FFF1FEE0F3A
:1003F000FF1FE80FF91FE05AFF4FE60FF11D808144
:100400000895CF93DF93D0E030C041E06D2F82E0BC
:100410000E948B03C4E01BC06C2F82E00E941B046F
:100420008823A1F06C2F82E00E941B048111FACF77
:1004300081E080930301D0930401C450C0930F0165
:1004400040E06D2F82E00E948B0311C0CF5FC83067
:1004500018F340E06D2F82E00E948B038FE097E25B
:100460000197F1F700C00000DF5FD43070F2DF9138
:10047000CF91089541E062E080E00E948B038FEC11
:1004800097E00197F1F700C0000040E062E080E0F3
:100490000E948B038FEC97E00197F1F700C00000FA
:1004A0000895CF93C82F40E063E080E00E948B0363
:1004B00040E061E080E00E948B036C2F81E00E94AD
:1004C0000B040E943A028FE19EE40197F1F700C00D
:1004D0000000CF9108952FEF89EF90E021508040E8
:1004E0009040E1F700C000006FEF80E00E94FB0346
:1004F0006FEF81E00E94FB0388E30E9451028CE0D1
:100500000E94510281E00E94510286E00E94510245
:1005100080E80E9451020895CF93C82F41E063E024
:1005200080E00E948B0340E061E080E00E948B034A
:100530006C2F81E00E940B040E943A028FE19EE43E
:100540000197F1F700C00000CF9108950F931F931A
:10055000CF938C01C0E003C0CF5F0E948C02F801F2
:10056000EC0FF11D80818111F7CFCF911F910F9179
:10057000089581E00E94510280E80E94510208958E
:10058000823010F4603120F080E80E9451020DC0EA
:10059000811105C080E8860F0E94510206C081309B
:1005A00021F480EC860F0E9451028FE99FE00197B1
:1005B000F1F700C00000089520917900AC01249F5C
:1005C000C001259F900D11249C01220F331F220F83
:1005D000331F820F931F6FEF73E00E94C706862FB1
:1005E000089597B1907E97B997B1892B87B986B155
:1005F000806486B986B186B1806186B924B185B13F
:1006000090E0982F8827822B089586B1806886B95C
:10061000089517B897B197B916B896B1892B86B9CE
:1006200086B1806886B940E060E080E00E941B03EC
:100630000E9405030895411138C0813091F028F0DF
:100640008230D9F0833029F108952AB381E090E017
:1006500002C0880F991F6A95E2F7809582238ABBB2
:10066000089527B381E090E002C0880F991F6A9532
:10067000E2F78095822387BB089524B381E090E060
:1006800002C0880F991F6A95E2F78095822384BB88
:10069000089521B381E090E002C0880F991F6A9508
:1006A000E2F78095822381BB0895413099F581302E
:1006B00089F028F08230C9F0833011F108952AB30F
:1006C00081E090E002C0880F991F6A95E2F7822BC3
:1006D0008ABB089527B381E090E002C0880F991F7C
:1006E0006A95E2F7822B87BB089524B381E090E0FE
:1006F00002C0880F991F6A95E2F7822B84BB089588
:1007000021B381E090E002C0880F991F6A95E2F75B
:10071000822B81BB0895411138C0813091F028F0BF
:100720008230D9F0833029F108952BB381E090E035
:1007300002C0880F991F6A95E2F7809582238BBBD0
:10074000089528B381E090E002C0880F991F6A9550
:10075000E2F78095822388BB089525B381E090E07D
:1007600002C0880F991F6A95E2F78095822385BBA6
:10077000089522B381E090E002C0880F991F6A9526
:10078000E2F78095822382BB0895413099F581304C
:1007900089F028F08230C9F0833011F108952BB32D
:1007A00081E090E002C0880F991F6A95E2F7822BE2
:1007B0008BBB089528B381E090E002C0880F991F99
:1007C0006A95E2F7822B88BB089525B381E090E01B
:1007D00002C0880F991F6A95E2F7822B85BB0895A6
:1007E00022B381E090E002C0880F991F6A95E2F77A
:1007F000822B82BB0895813041F028F0823039F09D
:10080000833039F008956ABB089567BB089564BBCF
:10081000089561BB0895813041F028F0823039F0AD
:10082000833039F008956BBB089568BB089565BBAC
:10083000089562BB0895813081F028F08230B9F0CC
:100840008330F9F027C089B390E002C09595879571
:100850006A95E2F7982F91701DC086B390E002C0B0
:10086000959587956A95E2F7982F917013C083B399
:1008700090E002C0959587956A95E2F7982F917060
:1008800009C080B390E002C0959587956A95E2F71C
:10089000982F9170892F08958FB581608FBD8FB586
:1008A00082608FBD8EB588608EBD8EB580618EBD35
:1008B00008951CBC1DBC8EB58E7F8EBD8EB582602A
:1008C0008EBD8EB58B7F8EBD0895CF92DF92EF9255
:1008D000FF926B017C0141E065E083E00E941B0315
:1008E0008FB580688FBD8FB58F7B8FBD20E030E0E6
:1008F00040E857E4C701B6010E945A0620E030E004
:1009000048EC52E40E94610520E030E040E85FE3FB
:100910000E94F4040E94D3059B01772324F422272C
:100920003327261B370B3BBD2ABDFF90EF90DF908E
:10093000CF9008952BB122602BB92AB120612AB93A
:100940002AB128602AB920B5206820BD20B52260D0
:1009500020BD20B5246020BDDC01CB01880F991F8C
:10096000AA1FBB1F880F991FAA1FBB1F9C01AD01A7
:10097000220F331F441F551F60E072E18AE790E0A9
:100980000E94DB062150310980B58F7780BD30BDD4
:1009900029B908959BB1929596959770D9F38CB922
:1009A00087EC90E00197F1F700C0000008955F9B8D
:1009B000FECF8CB108950F931F93CF938C01C0E0AD
:1009C00009C00E94CA04CF5F87EC90E00197F1F75D
:1009D00000C00000F801EC0FF11D80818111F1CF02
:1009E000CF911F910F9108955058BB27AA270E94BD
:1009F0000C050C9420060E94120638F00E9419067D
:100A000020F039F49F3F19F426F40C940F060EF4ED
:100A1000E095E7FB0C940906E92F0E94310658F394
:100A2000BA17620773078407950720F079F4A6F5D3
:100A30000C9453060EF4E0950B2EBA2FA02D0B014B
:100A4000B90190010C01CA01A0011124FF27591B13
:100A500099F0593F50F4503E68F11A16F040A22F19
:100A6000232F342F4427585FF3CF4695379527958A
:100A7000A795F0405395C9F77EF41F16BA0B620B89
:100A8000730B840BBAF09150A1F0FF0FBB1F661FD0
:100A9000771F881FC2F70EC0BA0F621F731F841F13
:100AA00048F4879577956795B795F7959E3F08F039
:100AB000B0CF9395880F08F09927EE0F97958795FB
:100AC00008950E9475050C9420060E94190658F09E
:100AD0000E94120640F029F45F3F29F00C940906A9
:100AE00051110C9454060C940F060E94310668F3C1
:100AF0009923B1F3552391F3951B550BBB27AA27D7
:100B000062177307840738F09F5F5F4F220F331F10
:100B1000441FAA1FA9F335D00E2E3AF0E0E832D0D8
:100B200091505040E695001CCAF72BD0FE2F29D0DB
:100B3000660F771F881FBB1F261737074807AB07AD
:100B4000B0E809F0BB0B802DBF01FF2793585F4F22
:100B50003AF09E3F510578F00C9409060C94540627
:100B60005F3FE4F3983ED4F3869577956795B79504
:100B7000F7959F5FC9F7880F911D9695879597F90F
:100B80000895E1E0660F771F881FBB1F6217730788
:100B90008407BA0720F0621B730B840BBA0BEE1F9D
:100BA00088F7E09508950E94DA056894B1110C94D5
:100BB000540608950E94390688F09F5798F0B92F7F
:100BC0009927B751B0F0E1F0660F771F881F991F82
:100BD0001AF0BA95C9F714C0B13091F00E945306CB
:100BE000B1E008950C945306672F782F8827B85FDB
:100BF00039F0B93FCCF3869577956795B395D9F7DA
:100C00003EF490958095709561957F4F8F4F9F4FE3
:100C1000089597F99F6780E870E060E008959FEF7E
:100C200080EC089500240A94161617061806090683
:100C3000089500240A941216130614060506089552
:100C4000092E0394000C11F4882352F0BB0F40F4DA
:100C5000BF2B11F460FF04C06F5F7F4F8F4F9F4F1A
:100C6000089557FD9058440F551F59F05F3F71F09C
:100C70004795880F97FB991F61F09F3F79F0879503
:100C80000895121613061406551FF2CF4695F1DF8C
:100C900008C0161617061806991FF1CF869571051C
:100CA000610508940895E894BB2766277727CB0150
:100CB00097F908950E946D060C9420060E94120672
:100CC00038F00E94190620F0952311F00C940906C3
:100CD0000C940F0611240C9454060E94310670F3F4
:100CE000959FC1F3950F50E0551F629FF001729FD1
:100CF000BB27F00DB11D639FAA27F00DB11DAA1FE0
:100D0000649F6627B00DA11D661F829F2227B00D2C
:100D1000A11D621F739FB00DA11D621F839FA00DB7
:100D2000611D221F749F3327A00D611D231F849F07
:100D3000600D211D822F762F6A2F11249F5750405E
:100D40009AF0F1F088234AF0EE0FFF1FBB1F661FD9
:100D5000771F881F91505040A9F79E3F510580F0A2
:100D60000C9409060C9454065F3FE4F3983ED4F3C8
:100D7000869577956795B795F795E7959F5FC1F746
:100D8000FE2B880F911D9695879597F90895AA1BBC
:100D9000BB1B51E107C0AA1FBB1FA617B70710F066
:100DA000A61BB70B881F991F5A95A9F78095909598
:100DB000BC01CD010895A1E21A2EAA1BBB1BFD01A7
:100DC0000DC0AA1FBB1FEE1FFF1FA217B307E4072A
:100DD000F50720F0A21BB30BE40BF50B661F771F82
:100DE000881F991F1A9469F7609570958095909562
:0E0DF0009B01AC01BD01CF010895F894FFCF27
:100DFE003738392F0034353658003132332D0066EE
:100E0E00303D2B00000000000064454E544552203A
:100E1E00504153533A006572726F7200506C7A20D3
:100E2E00656E74657220706173733A002074726916
:100E3E00616C73206C6566743A002B3A206F706596
:100E4E006E20646F6F72002D3A206368616E676565
:100E5E00207061737300666F72676F7420706173B8
:100E6E0073776F72643F002B3A2059455320202D23
:100E7E003A204E4F00636F6E6669726D20796F7502
:100E8E0020617265006E6F74206120526F626F7404
:020E9E00000052
:00000001FF
